:020000040800F2
:10000000002800203D0200088D0200088D02000833
:100010008D0200088D0200088D020008000000001B
:100020000000000000000000000000008D02000839
:100030008D020008000000008D0200088D020008FB
:100040008D0200088D0200088D0200088D02000854
:100050008D0200088D020008110200088D020008C0
:100060008D0200088D0200088D0200088D02000834
:100070008D0200088D0200088D0200088D02000824
:100080008D0200088D0200088D0200088D02000814
:100090008D0200088D0200088D0200088D02000804
:1000A0008D0200088D0200088D0200088D020008F4
:1000B0008D0200088D0200088D0200088D020008E4
:1000C0008D0200088D0200088D0200088D020008D4
:1000D0008D0200088D0200088D0200088D020008C4
:1000E0008D0200088D020008000000008D0200084B
:1000F0008D0200088D0200088D0200088D020008A4
:100100008D0200088D0200088D0200088D02000893
:100110008D0200088D0200088D0200088D02000883
:100120008D0200088D0200088D0200088D02000873
:1001300010B5054C237833B9044B13B10448AFF321
:1001400000800123237010BD00000020000000008B
:10015000D802000808B5034B1BB103490348AFF3AD
:10016000008008BD0000000004000020D802000844
:1001700080B400AF074B1B68064A43F004031360CA
:10018000044B1B68034A43F00103136000BFBD46E4
:1001900080BC70471810024080B400AF0A4B1B6847
:1001A000094A43F004031360084B1B68074A23F411
:1001B00070031360054B1B68044A43F4001313607B
:1001C00000BFBD4680BC70470008014004080140E4
:1001D00080B500AFFFF7CCFFFFF7DEFF094B1B68D0
:1001E000084A43F001031360074B1B68064A43F0BB
:1001F00001031360054B1B68044A43F0400313607E
:10020000FEE700BF000401400804014000E100E0F7
:1002100080B400AF074B1B68064A83F40053136099
:10022000054B1B68044A43F00103136000BFBD4641
:1002300080BC70470C080140140401400D488546FD
:10024000AFF300800C480D490D4A002302E0D4585A
:10025000C4500433C4188C42F9D30A4A0A4C002310
:1002600001E013600432A242FBD300F011F8FFF763
:10027000AFFFFEE700280020000000200000002063
:10028000F8020008000000201C000020FEE700002B
:1002900070B500250C4E0D4CA41BA410A54209D12D
:1002A00000F01AF800250A4E0A4CA41BA410A5421F
:1002B00005D170BD56F8253098470135EEE756F860
:1002C000253098470135F2E7F0020008F0020008F7
:1002D000F0020008F4020008F8B500BFF8BC08BC42
:1002E0009E467047F8B500BFF8BC08BC9E467047F4
:0402F00055010008AC
:0402F40031010008CC
:040000050800023DB0
:00000001FF
