:020000040800F2
:10000000002800208D020008DD020008DD02000843
:10001000DD020008DD020008DD020008000000002B
:10002000000000000000000000000000DD020008E9
:10003000DD02000800000000DD020008DD0200080B
:10004000DD020008DD020008DD020008DD02000814
:10005000DD020008DD020008DD020008DD02000804
:10006000DD020008DD020008DD020008DD020008F4
:10007000DD020008DD020008DD020008DD020008E4
:10008000DD020008DD020008DD020008DD020008D4
:10009000DD020008DD020008DD020008DD020008C4
:1000A000DD020008DD020008DD020008DD020008B4
:1000B000DD020008DD020008DD020008DD020008A4
:1000C000DD020008DD020008DD020008DD02000894
:1000D000DD020008DD020008DD020008DD02000884
:1000E000DD020008DD02000800000000DD0200085B
:1000F000DD020008DD020008DD020008DD02000864
:10010000DD020008DD020008DD020008DD02000853
:10011000DD020008DD020008DD020008DD02000843
:10012000DD020008DD020008DD020008DD02000833
:1001300010B5054C237833B9044B13B10448AFF321
:1001400000800123237010BD00000020000000008B
:100150002803000808B5034B1BB103490348AFF35C
:10016000008008BD000000000400002028030008F3
:1001700080B400AF074B1B68064A43F004031360CA
:10018000044B1B68034A43F00803136000BFBD46DD
:1001900080BC70471810024080B400AF164B1B683B
:1001A000154A43F040031360144B1B68134A23F4B1
:1001B00070031360114B1B68104A43F480031360F3
:1001C0000F4B1B680E4A23F0F00313600C4B1B68A7
:1001D0000B4A43F0100313600A4B1B68094A23F4CF
:1001E00070031360074B1B68064A43F480131360C7
:1001F00000BFBD4680BC70470008014004080140B4
:10020000000C0140040C014080B483B000AF002317
:100210007B6002E07B6801337B607B6841F2873260
:100220009342F7DD00BF0C37BD4680BC704700002D
:1002300080B500AFFFF79CFFFFF7AEFF114B1B68C7
:1002400003F00203002B0CD10F4B1B680E4A83F006
:100250000203136000BF0B4B1B6803F00203002B6B
:10026000F9D0084B1B685B0B03F00103012B05D190
:10027000054B1B68044A83F400531360FFF7C4FF67
:10028000DCE700BF080801400C0C01400D48854622
:10029000AFF300800C480D490D4A002302E0D4580A
:1002A000C4500433C4188C42F9D30A4A0A4C0023C0
:1002B00001E013600432A242FBD300F011F8FFF713
:1002C000B7FFFEE70028002000000020000000200B
:1002D00048030008000000201C000020FEE700008A
:1002E00070B500250C4E0D4CA41BA410A54209D1DD
:1002F00000F01AF800250A4E0A4CA41BA410A542CF
:1003000005D170BD56F8253098470135EEE756F80F
:10031000253098470135F2E7400300084003000804
:100320004003000844030008F8B500BFF8BC08BC4F
:100330009E467047F8B500BFF8BC08BC9E467047A3
:04034000550100085B
:04034400310100087B
:040000050800028D60
:00000001FF
